:020000040000FA
:100000000C288207C034F934A434B03499349234C3
:100010008234F834803490348316031788018901C0
:1000200083160313F0308500FF30860087018312AA
:1000300003130F308500FF3087000230A000A101BC
:10004000A2010730A300A401A501A6012A203B209C
:100050007F2026280618382803302402031CA40A0F
:1000600003302406031D08002618080026144C2817
:10007000A401261008008618492803302502031C15
:10008000A50A03302506031D0800A6180800A614BB
:100090006628A501A61008000330A3070A30230232
:1000A000031C0800A300A20A0A302202031C080055
:1000B000A200A10A0A302102031C0800A100A00A24
:1000C0000A302002031C0800A00008000330A3022D
:1000D000031808000A30A307A203220A031D080020
:1000E0000930A200A103210A031D08000930A10064
:1000F000A003200A031D08000930A0000800200802
:100100000120A7000E30962021080120A7000D3005
:10011000962022080120A7000B30962023080120FA
:10012000A700073096200F3085000800A8000F3088
:10013000850027088700280885000D30A800FF30BB
:0C014000A700A70BA128A80B9F2808000F
:02400E00C220CE
:02401000FF3F70
:00000001FF
